{
  "_format": "hh-sol-artifact-1",
  "contractName": "MyEpicNFT",
  "sourceName": "contracts/MyEpicNFT.sol",
  "abi": [
    {
      "inputs": [],
      "stateMutability": "nonpayable",
      "type": "constructor"
    },
    {
      "anonymous": false,
      "inputs": [
        {
          "indexed": true,
          "internalType": "address",
          "name": "owner",
          "type": "address"
        },
        {
          "indexed": true,
          "internalType": "address",
          "name": "approved",
          "type": "address"
        },
        {
          "indexed": true,
          "internalType": "uint256",
          "name": "tokenId",
          "type": "uint256"
        }
      ],
      "name": "Approval",
      "type": "event"
    },
    {
      "anonymous": false,
      "inputs": [
        {
          "indexed": true,
          "internalType": "address",
          "name": "owner",
          "type": "address"
        },
        {
          "indexed": true,
          "internalType": "address",
          "name": "operator",
          "type": "address"
        },
        {
          "indexed": false,
          "internalType": "bool",
          "name": "approved",
          "type": "bool"
        }
      ],
      "name": "ApprovalForAll",
      "type": "event"
    },
    {
      "anonymous": false,
      "inputs": [
        {
          "indexed": false,
          "internalType": "address",
          "name": "sender",
          "type": "address"
        },
        {
          "indexed": false,
          "internalType": "uint256",
          "name": "tokenId",
          "type": "uint256"
        }
      ],
      "name": "NewEpicNFTMinted",
      "type": "event"
    },
    {
      "anonymous": false,
      "inputs": [
        {
          "indexed": true,
          "internalType": "address",
          "name": "from",
          "type": "address"
        },
        {
          "indexed": true,
          "internalType": "address",
          "name": "to",
          "type": "address"
        },
        {
          "indexed": true,
          "internalType": "uint256",
          "name": "tokenId",
          "type": "uint256"
        }
      ],
      "name": "Transfer",
      "type": "event"
    },
    {
      "inputs": [
        {
          "internalType": "address",
          "name": "to",
          "type": "address"
        },
        {
          "internalType": "uint256",
          "name": "tokenId",
          "type": "uint256"
        }
      ],
      "name": "approve",
      "outputs": [],
      "stateMutability": "nonpayable",
      "type": "function"
    },
    {
      "inputs": [
        {
          "internalType": "address",
          "name": "owner",
          "type": "address"
        }
      ],
      "name": "balanceOf",
      "outputs": [
        {
          "internalType": "uint256",
          "name": "",
          "type": "uint256"
        }
      ],
      "stateMutability": "view",
      "type": "function"
    },
    {
      "inputs": [
        {
          "internalType": "uint256",
          "name": "tokenId",
          "type": "uint256"
        }
      ],
      "name": "getApproved",
      "outputs": [
        {
          "internalType": "address",
          "name": "",
          "type": "address"
        }
      ],
      "stateMutability": "view",
      "type": "function"
    },
    {
      "inputs": [],
      "name": "getTotalNFTsMintedSoFar",
      "outputs": [
        {
          "internalType": "uint256",
          "name": "",
          "type": "uint256"
        }
      ],
      "stateMutability": "view",
      "type": "function"
    },
    {
      "inputs": [
        {
          "internalType": "address",
          "name": "owner",
          "type": "address"
        },
        {
          "internalType": "address",
          "name": "operator",
          "type": "address"
        }
      ],
      "name": "isApprovedForAll",
      "outputs": [
        {
          "internalType": "bool",
          "name": "",
          "type": "bool"
        }
      ],
      "stateMutability": "view",
      "type": "function"
    },
    {
      "inputs": [],
      "name": "makeAnEpicNFT",
      "outputs": [],
      "stateMutability": "nonpayable",
      "type": "function"
    },
    {
      "inputs": [],
      "name": "name",
      "outputs": [
        {
          "internalType": "string",
          "name": "",
          "type": "string"
        }
      ],
      "stateMutability": "view",
      "type": "function"
    },
    {
      "inputs": [
        {
          "internalType": "uint256",
          "name": "tokenId",
          "type": "uint256"
        }
      ],
      "name": "ownerOf",
      "outputs": [
        {
          "internalType": "address",
          "name": "",
          "type": "address"
        }
      ],
      "stateMutability": "view",
      "type": "function"
    },
    {
      "inputs": [
        {
          "internalType": "uint256",
          "name": "tokenId",
          "type": "uint256"
        }
      ],
      "name": "pickRandomFirstWord",
      "outputs": [
        {
          "internalType": "string",
          "name": "",
          "type": "string"
        }
      ],
      "stateMutability": "view",
      "type": "function"
    },
    {
      "inputs": [
        {
          "internalType": "uint256",
          "name": "tokenId",
          "type": "uint256"
        }
      ],
      "name": "pickRandomSecondWord",
      "outputs": [
        {
          "internalType": "string",
          "name": "",
          "type": "string"
        }
      ],
      "stateMutability": "view",
      "type": "function"
    },
    {
      "inputs": [
        {
          "internalType": "uint256",
          "name": "tokenId",
          "type": "uint256"
        }
      ],
      "name": "pickRandomThirdWord",
      "outputs": [
        {
          "internalType": "string",
          "name": "",
          "type": "string"
        }
      ],
      "stateMutability": "view",
      "type": "function"
    },
    {
      "inputs": [
        {
          "internalType": "address",
          "name": "from",
          "type": "address"
        },
        {
          "internalType": "address",
          "name": "to",
          "type": "address"
        },
        {
          "internalType": "uint256",
          "name": "tokenId",
          "type": "uint256"
        }
      ],
      "name": "safeTransferFrom",
      "outputs": [],
      "stateMutability": "nonpayable",
      "type": "function"
    },
    {
      "inputs": [
        {
          "internalType": "address",
          "name": "from",
          "type": "address"
        },
        {
          "internalType": "address",
          "name": "to",
          "type": "address"
        },
        {
          "internalType": "uint256",
          "name": "tokenId",
          "type": "uint256"
        },
        {
          "internalType": "bytes",
          "name": "_data",
          "type": "bytes"
        }
      ],
      "name": "safeTransferFrom",
      "outputs": [],
      "stateMutability": "nonpayable",
      "type": "function"
    },
    {
      "inputs": [
        {
          "internalType": "address",
          "name": "operator",
          "type": "address"
        },
        {
          "internalType": "bool",
          "name": "approved",
          "type": "bool"
        }
      ],
      "name": "setApprovalForAll",
      "outputs": [],
      "stateMutability": "nonpayable",
      "type": "function"
    },
    {
      "inputs": [
        {
          "internalType": "bytes4",
          "name": "interfaceId",
          "type": "bytes4"
        }
      ],
      "name": "supportsInterface",
      "outputs": [
        {
          "internalType": "bool",
          "name": "",
          "type": "bool"
        }
      ],
      "stateMutability": "view",
      "type": "function"
    },
    {
      "inputs": [],
      "name": "symbol",
      "outputs": [
        {
          "internalType": "string",
          "name": "",
          "type": "string"
        }
      ],
      "stateMutability": "view",
      "type": "function"
    },
    {
      "inputs": [
        {
          "internalType": "uint256",
          "name": "tokenId",
          "type": "uint256"
        }
      ],
      "name": "tokenURI",
      "outputs": [
        {
          "internalType": "string",
          "name": "",
          "type": "string"
        }
      ],
      "stateMutability": "view",
      "type": "function"
    },
    {
      "inputs": [
        {
          "internalType": "address",
          "name": "from",
          "type": "address"
        },
        {
          "internalType": "address",
          "name": "to",
          "type": "address"
        },
        {
          "internalType": "uint256",
          "name": "tokenId",
          "type": "uint256"
        }
      ],
      "name": "transferFrom",
      "outputs": [],
      "stateMutability": "nonpayable",
      "type": "function"
    }
  ],
  "bytecode": "0x608060405260405180610160016040528061012f8152602001620043c461012f913960089080519060200190620000389291906200067e565b506040518060c001604052806040518060400160405280600881526020017f626974636f696e2000000000000000000000000000000000000000000000000081525081526020016040518060400160405280600681526020017f657468657220000000000000000000000000000000000000000000000000000081525081526020016040518060400160405280600581526020017f6c696e6b2000000000000000000000000000000000000000000000000000000081525081526020016040518060400160405280600781526020017f726970706c65200000000000000000000000000000000000000000000000000081525081526020016040518060400160405280600881526020017f63617264616e6f2000000000000000000000000000000000000000000000000081525081526020016040518060400160405280600981526020017f74686567726170682000000000000000000000000000000000000000000000008152508152506009906006620001b69291906200070f565b506040518060c001604052806040518060400160405280600781526020017f62656c697a65200000000000000000000000000000000000000000000000000081525081526020016040518060400160405280600881526020017f617573747269612000000000000000000000000000000000000000000000000081525081526020016040518060400160405280600a81526020017f73696e6761706f7265200000000000000000000000000000000000000000000081525081526020016040518060400160405280600881526020017f6963656c616e642000000000000000000000000000000000000000000000000081525081526020016040518060400160405280600781526020017f6e6f72776179200000000000000000000000000000000000000000000000000081525081526020016040518060400160405280600881526020017f73656e6567616c20000000000000000000000000000000000000000000000000815250815250600a906006620003349291906200070f565b506040518060c001604052806040518060400160405280600881526020017f6275727269746f2000000000000000000000000000000000000000000000000081525081526020016040518060400160405280600681526020017f70697a7a6120000000000000000000000000000000000000000000000000000081525081526020016040518060400160405280600881526020017f706164746861692000000000000000000000000000000000000000000000000081525081526020016040518060400160405280600681526020017f717565736f20000000000000000000000000000000000000000000000000000081525081526020016040518060400160405280600b81526020017f63686565736563616b652000000000000000000000000000000000000000000081525081526020016040518060400160405280600681526020017f6f746f726f200000000000000000000000000000000000000000000000000000815250815250600b906006620004b29291906200070f565b50348015620004c057600080fd5b506040518060400160405280600981526020017f5371756172654e465400000000000000000000000000000000000000000000008152506040518060400160405280600681526020017f53515541524500000000000000000000000000000000000000000000000000008152508160009080519060200190620005459291906200067e565b5080600190805190602001906200055e9291906200067e565b505050620005ac6040518060400160405280601881526020017f54686973206973206d79204e465420636f6e7472616374210000000000000000815250620005b260201b620010b71760201c565b62000930565b6200065281604051602401620005c9919062000844565b6040516020818303038152906040527f41304fac000000000000000000000000000000000000000000000000000000007bffffffffffffffffffffffffffffffffffffffffffffffffffffffff19166020820180517bffffffffffffffffffffffffffffffffffffffffffffffffffffffff83818316178352505050506200065560201b60201c565b50565b60008151905060006a636f6e736f6c652e6c6f679050602083016000808483855afa5050505050565b8280546200068c90620008ba565b90600052602060002090601f016020900481019282620006b05760008555620006fc565b82601f10620006cb57805160ff1916838001178555620006fc565b82800160010185558215620006fc579182015b82811115620006fb578251825591602001919060010190620006de565b5b5090506200070b919062000776565b5090565b82805482825590600052602060002090810192821562000763579160200282015b8281111562000762578251829080519060200190620007519291906200067e565b509160200191906001019062000730565b5b50905062000772919062000795565b5090565b5b808211156200079157600081600090555060010162000777565b5090565b5b80821115620007b95760008181620007af9190620007bd565b5060010162000796565b5090565b508054620007cb90620008ba565b6000825580601f10620007df575062000800565b601f016020900490600052602060002090810190620007ff919062000776565b5b50565b6000620008108262000868565b6200081c818562000873565b93506200082e81856020860162000884565b62000839816200091f565b840191505092915050565b6000602082019050818103600083015262000860818462000803565b905092915050565b600081519050919050565b600082825260208201905092915050565b60005b83811015620008a457808201518184015260208101905062000887565b83811115620008b4576000848401525b50505050565b60006002820490506001821680620008d357607f821691505b60208210811415620008ea57620008e9620008f0565b5b50919050565b7f4e487b7100000000000000000000000000000000000000000000000000000000600052602260045260246000fd5b6000601f19601f8301169050919050565b613a8480620009406000396000f3fe608060405234801561001057600080fd5b50600436106101165760003560e01c806370a08231116100a2578063b88d4fde11610071578063b88d4fde14610305578063c575757a14610321578063c87b56dd14610351578063de9d132f14610381578063e985e9c51461038b57610116565b806370a082311461026b57806395d89b411461029b578063a22cb465146102b9578063b187301f146102d557610116565b8063095ea7b3116100e9578063095ea7b3146101b757806323b872dd146101d35780632de38d68146101ef57806342842e0e1461021f5780636352211e1461023b57610116565b806301ffc9a71461011b578063060475901461014b57806306fdde0314610169578063081812fc14610187575b600080fd5b61013560048036038101906101309190612495565b6103bb565b6040516101429190612c0a565b60405180910390f35b61015361049d565b6040516101609190612e85565b60405180910390f35b6101716104ae565b60405161017e9190612c25565b60405180910390f35b6101a1600480360381019061019c91906124ef565b610540565b6040516101ae9190612b7a565b60405180910390f35b6101d160048036038101906101cc9190612455565b6105c5565b005b6101ed60048036038101906101e8919061233f565b6106dd565b005b610209600480360381019061020491906124ef565b61073d565b6040516102169190612c25565b60405180910390f35b6102396004803603810190610234919061233f565b610835565b005b610255600480360381019061025091906124ef565b610855565b6040516102629190612b7a565b60405180910390f35b610285600480360381019061028091906122d2565b610907565b6040516102929190612e85565b60405180910390f35b6102a36109bf565b6040516102b09190612c25565b60405180910390f35b6102d360048036038101906102ce9190612415565b610a51565b005b6102ef60048036038101906102ea91906124ef565b610a67565b6040516102fc9190612c25565b60405180910390f35b61031f600480360381019061031a9190612392565b610b5f565b005b61033b600480360381019061033691906124ef565b610bc1565b6040516103489190612c25565b60405180910390f35b61036b600480360381019061036691906124ef565b610cb9565b6040516103789190612c25565b60405180910390f35b610389610e0b565b005b6103a560048036038101906103a091906122ff565b611023565b6040516103b29190612c0a565b60405180910390f35b60007f80ac58cd000000000000000000000000000000000000000000000000000000007bffffffffffffffffffffffffffffffffffffffffffffffffffffffff1916827bffffffffffffffffffffffffffffffffffffffffffffffffffffffff1916148061048657507f5b5e139f000000000000000000000000000000000000000000000000000000007bffffffffffffffffffffffffffffffffffffffffffffffffffffffff1916827bffffffffffffffffffffffffffffffffffffffffffffffffffffffff1916145b80610496575061049582611150565b5b9050919050565b60006104a960076111ba565b905090565b6060600080546104bd90613119565b80601f01602080910402602001604051908101604052809291908181526020018280546104e990613119565b80156105365780601f1061050b57610100808354040283529160200191610536565b820191906000526020600020905b81548152906001019060200180831161051957829003601f168201915b5050505050905090565b600061054b826111c8565b61058a576040517f08c379a000000000000000000000000000000000000000000000000000000000815260040161058190612e05565b60405180910390fd5b6004600083815260200190815260200160002060009054906101000a900473ffffffffffffffffffffffffffffffffffffffff169050919050565b60006105d082610855565b90508073ffffffffffffffffffffffffffffffffffffffff168373ffffffffffffffffffffffffffffffffffffffff161415610641576040517f08c379a000000000000000000000000000000000000000000000000000000000815260040161063890612e45565b60405180910390fd5b8073ffffffffffffffffffffffffffffffffffffffff16610660611234565b73ffffffffffffffffffffffffffffffffffffffff16148061068f575061068e81610689611234565b611023565b5b6106ce576040517f08c379a00000000000000000000000000000000000000000000000000000000081526004016106c590612d45565b60405180910390fd5b6106d8838361123c565b505050565b6106ee6106e8611234565b826112f5565b61072d576040517f08c379a000000000000000000000000000000000000000000000000000000000815260040161072490612e65565b60405180910390fd5b6107388383836113d3565b505050565b6060600061077161074d8461163a565b60405160200161075d9190612acf565b60405160208183030381529060405261179b565b90506009805490508161078491906131c5565b90506009818154811061079a57610799613283565b5b9060005260206000200180546107af90613119565b80601f01602080910402602001604051908101604052809291908181526020018280546107db90613119565b80156108285780601f106107fd57610100808354040283529160200191610828565b820191906000526020600020905b81548152906001019060200180831161080b57829003601f168201915b5050505050915050919050565b61085083838360405180602001604052806000815250610b5f565b505050565b6000806002600084815260200190815260200160002060009054906101000a900473ffffffffffffffffffffffffffffffffffffffff169050600073ffffffffffffffffffffffffffffffffffffffff168173ffffffffffffffffffffffffffffffffffffffff1614156108fe576040517f08c379a00000000000000000000000000000000000000000000000000000000081526004016108f590612d85565b60405180910390fd5b80915050919050565b60008073ffffffffffffffffffffffffffffffffffffffff168273ffffffffffffffffffffffffffffffffffffffff161415610978576040517f08c379a000000000000000000000000000000000000000000000000000000000815260040161096f90612d65565b60405180910390fd5b600360008373ffffffffffffffffffffffffffffffffffffffff1673ffffffffffffffffffffffffffffffffffffffff168152602001908152602001600020549050919050565b6060600180546109ce90613119565b80601f01602080910402602001604051908101604052809291908181526020018280546109fa90613119565b8015610a475780601f10610a1c57610100808354040283529160200191610a47565b820191906000526020600020905b815481529060010190602001808311610a2a57829003601f168201915b5050505050905090565b610a63610a5c611234565b83836117ce565b5050565b60606000610a9b610a778461163a565b604051602001610a879190612aad565b60405160208183030381529060405261179b565b9050600a8054905081610aae91906131c5565b9050600a8181548110610ac457610ac3613283565b5b906000526020600020018054610ad990613119565b80601f0160208091040260200160405190810160405280929190818152602001828054610b0590613119565b8015610b525780601f10610b2757610100808354040283529160200191610b52565b820191906000526020600020905b815481529060010190602001808311610b3557829003601f168201915b5050505050915050919050565b610b70610b6a611234565b836112f5565b610baf576040517f08c379a0000000000000000000000000000000000000000000000000000000008152600401610ba690612e65565b60405180910390fd5b610bbb8484848461193b565b50505050565b60606000610bf5610bd18461163a565b604051602001610be19190612b36565b60405160208183030381529060405261179b565b9050600b8054905081610c0891906131c5565b9050600b8181548110610c1e57610c1d613283565b5b906000526020600020018054610c3390613119565b80601f0160208091040260200160405190810160405280929190818152602001828054610c5f90613119565b8015610cac5780601f10610c8157610100808354040283529160200191610cac565b820191906000526020600020905b815481529060010190602001808311610c8f57829003601f168201915b5050505050915050919050565b6060610cc4826111c8565b610d03576040517f08c379a0000000000000000000000000000000000000000000000000000000008152600401610cfa90612de5565b60405180910390fd5b6000600660008481526020019081526020016000208054610d2390613119565b80601f0160208091040260200160405190810160405280929190818152602001828054610d4f90613119565b8015610d9c5780601f10610d7157610100808354040283529160200191610d9c565b820191906000526020600020905b815481529060010190602001808311610d7f57829003601f168201915b505050505090506000610dad611997565b9050600081511415610dc3578192505050610e06565b600082511115610df8578082604051602001610de09291906129ed565b60405160208183030381529060405292505050610e06565b610e01846119ae565b925050505b919050565b6000610e1760076111ba565b90506031811115610e2757600080fd5b6000610e328261073d565b90506000610e3f83610a67565b90506000610e4c84610bc1565b90506000838383604051602001610e6593929190612a11565b604051602081830303815290604052905060006008858585604051602001610e909493929190612a42565b60405160208183030381529060405290506000610ed583610eb084611a55565b604051602001610ec1929190612af1565b604051602081830303815290604052611a55565b9050600081604051602001610eea9190612b58565b6040516020818303038152906040529050610f396040518060400160405280601581526020017f0a2d2d2d2d2d2d2d2d2d2d2d2d2d2d2d2d2d2d2d2d00000000000000000000008152506110b7565b610f6181604051602001610f4d9190612a8b565b6040516020818303038152906040526110b7565b610f9f6040518060400160405280601581526020017f2d2d2d2d2d2d2d2d2d2d2d2d2d2d2d2d2d2d2d2d0a00000000000000000000008152506110b7565b610fa93389611bed565b610fb38882611c0b565b610fd6604051806060016040528060258152602001613a2a602591398933611c7f565b610fe06007611d1e565b7febb98688741ffa4c7589bf325de30cf7becb63de567842e1ccdb6cb949fdc82c3389604051611011929190612be1565b60405180910390a15050505050505050565b6000600560008473ffffffffffffffffffffffffffffffffffffffff1673ffffffffffffffffffffffffffffffffffffffff16815260200190815260200160002060008373ffffffffffffffffffffffffffffffffffffffff1673ffffffffffffffffffffffffffffffffffffffff16815260200190815260200160002060009054906101000a900460ff16905092915050565b61114d816040516024016110cb9190612c25565b6040516020818303038152906040527f41304fac000000000000000000000000000000000000000000000000000000007bffffffffffffffffffffffffffffffffffffffffffffffffffffffff19166020820180517bffffffffffffffffffffffffffffffffffffffffffffffffffffffff8381831617835250505050611d34565b50565b60007f01ffc9a7000000000000000000000000000000000000000000000000000000007bffffffffffffffffffffffffffffffffffffffffffffffffffffffff1916827bffffffffffffffffffffffffffffffffffffffffffffffffffffffff1916149050919050565b600081600001549050919050565b60008073ffffffffffffffffffffffffffffffffffffffff166002600084815260200190815260200160002060009054906101000a900473ffffffffffffffffffffffffffffffffffffffff1673ffffffffffffffffffffffffffffffffffffffff1614159050919050565b600033905090565b816004600083815260200190815260200160002060006101000a81548173ffffffffffffffffffffffffffffffffffffffff021916908373ffffffffffffffffffffffffffffffffffffffff160217905550808273ffffffffffffffffffffffffffffffffffffffff166112af83610855565b73ffffffffffffffffffffffffffffffffffffffff167f8c5be1e5ebec7d5bd14f71427d1e84f3dd0314c0f7b2291e5b200ac8c7c3b92560405160405180910390a45050565b6000611300826111c8565b61133f576040517f08c379a000000000000000000000000000000000000000000000000000000000815260040161133690612d25565b60405180910390fd5b600061134a83610855565b90508073ffffffffffffffffffffffffffffffffffffffff168473ffffffffffffffffffffffffffffffffffffffff1614806113b957508373ffffffffffffffffffffffffffffffffffffffff166113a184610540565b73ffffffffffffffffffffffffffffffffffffffff16145b806113ca57506113c98185611023565b5b91505092915050565b8273ffffffffffffffffffffffffffffffffffffffff166113f382610855565b73ffffffffffffffffffffffffffffffffffffffff1614611449576040517f08c379a000000000000000000000000000000000000000000000000000000000815260040161144090612ca5565b60405180910390fd5b600073ffffffffffffffffffffffffffffffffffffffff168273ffffffffffffffffffffffffffffffffffffffff1614156114b9576040517f08c379a00000000000000000000000000000000000000000000000000000000081526004016114b090612ce5565b60405180910390fd5b6114c4838383611d5d565b6114cf60008261123c565b6001600360008573ffffffffffffffffffffffffffffffffffffffff1673ffffffffffffffffffffffffffffffffffffffff168152602001908152602001600020600082825461151f919061302f565b925050819055506001600360008473ffffffffffffffffffffffffffffffffffffffff1673ffffffffffffffffffffffffffffffffffffffff16815260200190815260200160002060008282546115769190612f4e565b92505081905550816002600083815260200190815260200160002060006101000a81548173ffffffffffffffffffffffffffffffffffffffff021916908373ffffffffffffffffffffffffffffffffffffffff160217905550808273ffffffffffffffffffffffffffffffffffffffff168473ffffffffffffffffffffffffffffffffffffffff167fddf252ad1be2c89b69c2b068fc378daa952ba7f163c4a11628f55a4df523b3ef60405160405180910390a4611635838383611d62565b505050565b60606000821415611682576040518060400160405280600181526020017f30000000000000000000000000000000000000000000000000000000000000008152509050611796565b600082905060005b600082146116b457808061169d9061317c565b915050600a826116ad9190612fa4565b915061168a565b60008167ffffffffffffffff8111156116d0576116cf6132b2565b5b6040519080825280601f01601f1916602001820160405280156117025781602001600182028036833780820191505090505b5090505b6000851461178f5760018261171b919061302f565b9150600a8561172a91906131c5565b60306117369190612f4e565b60f81b81838151811061174c5761174b613283565b5b60200101907effffffffffffffffffffffffffffffffffffffffffffffffffffffffffffff1916908160001a905350600a856117889190612fa4565b9450611706565b8093505050505b919050565b6000816040516020016117ae91906129d6565b6040516020818303038152906040528051906020012060001c9050919050565b8173ffffffffffffffffffffffffffffffffffffffff168373ffffffffffffffffffffffffffffffffffffffff16141561183d576040517f08c379a000000000000000000000000000000000000000000000000000000000815260040161183490612d05565b60405180910390fd5b80600560008573ffffffffffffffffffffffffffffffffffffffff1673ffffffffffffffffffffffffffffffffffffffff16815260200190815260200160002060008473ffffffffffffffffffffffffffffffffffffffff1673ffffffffffffffffffffffffffffffffffffffff16815260200190815260200160002060006101000a81548160ff0219169083151502179055508173ffffffffffffffffffffffffffffffffffffffff168373ffffffffffffffffffffffffffffffffffffffff167f17307eab39ab6107e8899845ad3d59bd9653f200f220920489ca2b5937696c318360405161192e9190612c0a565b60405180910390a3505050565b6119468484846113d3565b61195284848484611d67565b611991576040517f08c379a000000000000000000000000000000000000000000000000000000000815260040161198890612c85565b60405180910390fd5b50505050565b606060405180602001604052806000815250905090565b60606119b9826111c8565b6119f8576040517f08c379a00000000000000000000000000000000000000000000000000000000081526004016119ef90612e25565b60405180910390fd5b6000611a02611997565b90506000815111611a225760405180602001604052806000815250611a4d565b80611a2c8461163a565b604051602001611a3d9291906129ed565b6040516020818303038152906040525b915050919050565b60606000825190506000811415611a7e5760405180602001604052806000815250915050611be8565b60006003600283611a8f9190612f4e565b611a999190612fa4565b6004611aa59190612fd5565b90506000602082611ab69190612f4e565b67ffffffffffffffff811115611acf57611ace6132b2565b5b6040519080825280601f01601f191660200182016040528015611b015781602001600182028036833780820191505090505b50905060006040518060600160405280604081526020016139ea604091399050600181016020830160005b86811015611ba55760038101905062ffffff818a015116603f8160121c168401518060081b905060ff603f83600c1c1686015116810190508060081b905060ff603f8360061c1686015116810190508060081b905060ff603f831686015116810190508060e01b90508084526004840193505050611b2c565b506003860660018114611bbf5760028114611bcf57611bda565b613d3d60f01b6002830352611bda565b603d60f81b60018303525b508484525050819450505050505b919050565b611c07828260405180602001604052806000815250611efe565b5050565b611c14826111c8565b611c53576040517f08c379a0000000000000000000000000000000000000000000000000000000008152600401611c4a90612da5565b60405180910390fd5b80600660008481526020019081526020016000209080519060200190611c7a929190612156565b505050565b611d19838383604051602401611c9793929190612c47565b6040516020818303038152906040527fe3849f79000000000000000000000000000000000000000000000000000000007bffffffffffffffffffffffffffffffffffffffffffffffffffffffff19166020820180517bffffffffffffffffffffffffffffffffffffffffffffffffffffffff8381831617835250505050611d34565b505050565b6001816000016000828254019250508190555050565b60008151905060006a636f6e736f6c652e6c6f679050602083016000808483855afa5050505050565b505050565b505050565b6000611d888473ffffffffffffffffffffffffffffffffffffffff16611f59565b15611ef1578373ffffffffffffffffffffffffffffffffffffffff1663150b7a02611db1611234565b8786866040518563ffffffff1660e01b8152600401611dd39493929190612b95565b602060405180830381600087803b158015611ded57600080fd5b505af1925050508015611e1e57506040513d601f19601f82011682018060405250810190611e1b91906124c2565b60015b611ea1573d8060008114611e4e576040519150601f19603f3d011682016040523d82523d6000602084013e611e53565b606091505b50600081511415611e99576040517f08c379a0000000000000000000000000000000000000000000000000000000008152600401611e9090612c85565b60405180910390fd5b805181602001fd5b63150b7a0260e01b7bffffffffffffffffffffffffffffffffffffffffffffffffffffffff1916817bffffffffffffffffffffffffffffffffffffffffffffffffffffffff191614915050611ef6565b600190505b949350505050565b611f088383611f7c565b611f156000848484611d67565b611f54576040517f08c379a0000000000000000000000000000000000000000000000000000000008152600401611f4b90612c85565b60405180910390fd5b505050565b6000808273ffffffffffffffffffffffffffffffffffffffff163b119050919050565b600073ffffffffffffffffffffffffffffffffffffffff168273ffffffffffffffffffffffffffffffffffffffff161415611fec576040517f08c379a0000000000000000000000000000000000000000000000000000000008152600401611fe390612dc5565b60405180910390fd5b611ff5816111c8565b15612035576040517f08c379a000000000000000000000000000000000000000000000000000000000815260040161202c90612cc5565b60405180910390fd5b61204160008383611d5d565b6001600360008473ffffffffffffffffffffffffffffffffffffffff1673ffffffffffffffffffffffffffffffffffffffff16815260200190815260200160002060008282546120919190612f4e565b92505081905550816002600083815260200190815260200160002060006101000a81548173ffffffffffffffffffffffffffffffffffffffff021916908373ffffffffffffffffffffffffffffffffffffffff160217905550808273ffffffffffffffffffffffffffffffffffffffff16600073ffffffffffffffffffffffffffffffffffffffff167fddf252ad1be2c89b69c2b068fc378daa952ba7f163c4a11628f55a4df523b3ef60405160405180910390a461215260008383611d62565b5050565b82805461216290613119565b90600052602060002090601f01602090048101928261218457600085556121cb565b82601f1061219d57805160ff19168380011785556121cb565b828001600101855582156121cb579182015b828111156121ca5782518255916020019190600101906121af565b5b5090506121d891906121dc565b5090565b5b808211156121f55760008160009055506001016121dd565b5090565b600061220c61220784612ec5565b612ea0565b905082815260208101848484011115612228576122276132e6565b5b6122338482856130d7565b509392505050565b60008135905061224a8161398d565b92915050565b60008135905061225f816139a4565b92915050565b600081359050612274816139bb565b92915050565b600081519050612289816139bb565b92915050565b600082601f8301126122a4576122a36132e1565b5b81356122b48482602086016121f9565b91505092915050565b6000813590506122cc816139d2565b92915050565b6000602082840312156122e8576122e76132f0565b5b60006122f68482850161223b565b91505092915050565b60008060408385031215612316576123156132f0565b5b60006123248582860161223b565b92505060206123358582860161223b565b9150509250929050565b600080600060608486031215612358576123576132f0565b5b60006123668682870161223b565b93505060206123778682870161223b565b9250506040612388868287016122bd565b9150509250925092565b600080600080608085870312156123ac576123ab6132f0565b5b60006123ba8782880161223b565b94505060206123cb8782880161223b565b93505060406123dc878288016122bd565b925050606085013567ffffffffffffffff8111156123fd576123fc6132eb565b5b6124098782880161228f565b91505092959194509250565b6000806040838503121561242c5761242b6132f0565b5b600061243a8582860161223b565b925050602061244b85828601612250565b9150509250929050565b6000806040838503121561246c5761246b6132f0565b5b600061247a8582860161223b565b925050602061248b858286016122bd565b9150509250929050565b6000602082840312156124ab576124aa6132f0565b5b60006124b984828501612265565b91505092915050565b6000602082840312156124d8576124d76132f0565b5b60006124e68482850161227a565b91505092915050565b600060208284031215612505576125046132f0565b5b6000612513848285016122bd565b91505092915050565b61252581613063565b82525050565b61253481613075565b82525050565b600061254582612f0b565b61254f8185612f21565b935061255f8185602086016130e6565b612568816132f5565b840191505092915050565b600061257e82612f16565b6125888185612f32565b93506125988185602086016130e6565b6125a1816132f5565b840191505092915050565b60006125b782612f16565b6125c18185612f43565b93506125d18185602086016130e6565b80840191505092915050565b600081546125ea81613119565b6125f48186612f43565b9450600182166000811461260f576001811461262057612653565b60ff19831686528186019350612653565b61262985612ef6565b60005b8381101561264b5781548189015260018201915060208101905061262c565b838801955050505b50505092915050565b6000612669602583612f43565b915061267482613306565b602582019050919050565b600061268c603283612f32565b915061269782613355565b604082019050919050565b60006126af602583612f32565b91506126ba826133a4565b604082019050919050565b60006126d2601c83612f32565b91506126dd826133f3565b602082019050919050565b60006126f5600a83612f43565b91506127008261341c565b600a82019050919050565b6000612718602483612f32565b915061272382613445565b604082019050919050565b600061273b601983612f32565b915061274682613494565b602082019050919050565b600061275e606383612f43565b9150612769826134bd565b606382019050919050565b6000612781600b83612f43565b915061278c82613558565b600b82019050919050565b60006127a4602c83612f32565b91506127af82613581565b604082019050919050565b60006127c7600d83612f43565b91506127d2826135d0565b600d82019050919050565b60006127ea603883612f32565b91506127f5826135f9565b604082019050919050565b600061280d602a83612f32565b915061281882613648565b604082019050919050565b6000612830602983612f32565b915061283b82613697565b604082019050919050565b6000612853602e83612f32565b915061285e826136e6565b604082019050919050565b6000612876600283612f43565b915061288182613735565b600282019050919050565b6000612899602083612f32565b91506128a48261375e565b602082019050919050565b60006128bc603183612f32565b91506128c782613787565b604082019050919050565b60006128df602c83612f32565b91506128ea826137d6565b604082019050919050565b6000612902602f83612f32565b915061290d82613825565b604082019050919050565b6000612925600a83612f43565b915061293082613874565b600a82019050919050565b6000612948602183612f32565b91506129538261389d565b604082019050919050565b600061296b600a83612f43565b9150612976826138ec565b600a82019050919050565b600061298e601d83612f43565b915061299982613915565b601d82019050919050565b60006129b1603183612f32565b91506129bc8261393e565b604082019050919050565b6129d0816130cd565b82525050565b60006129e282846125ac565b915081905092915050565b60006129f982856125ac565b9150612a0582846125ac565b91508190509392505050565b6000612a1d82866125ac565b9150612a2982856125ac565b9150612a3582846125ac565b9150819050949350505050565b6000612a4e82876125dd565b9150612a5a82866125ac565b9150612a6682856125ac565b9150612a7282846125ac565b9150612a7d826127ba565b915081905095945050505050565b6000612a968261265c565b9150612aa282846125ac565b915081905092915050565b6000612ab8826126e8565b9150612ac482846125ac565b915081905092915050565b6000612ada82612774565b9150612ae682846125ac565b915081905092915050565b6000612afc82612918565b9150612b0882856125ac565b9150612b1382612751565b9150612b1f82846125ac565b9150612b2a82612869565b91508190509392505050565b6000612b418261295e565b9150612b4d82846125ac565b915081905092915050565b6000612b6382612981565b9150612b6f82846125ac565b915081905092915050565b6000602082019050612b8f600083018461251c565b92915050565b6000608082019050612baa600083018761251c565b612bb7602083018661251c565b612bc460408301856129c7565b8181036060830152612bd6818461253a565b905095945050505050565b6000604082019050612bf6600083018561251c565b612c0360208301846129c7565b9392505050565b6000602082019050612c1f600083018461252b565b92915050565b60006020820190508181036000830152612c3f8184612573565b905092915050565b60006060820190508181036000830152612c618186612573565b9050612c7060208301856129c7565b612c7d604083018461251c565b949350505050565b60006020820190508181036000830152612c9e8161267f565b9050919050565b60006020820190508181036000830152612cbe816126a2565b9050919050565b60006020820190508181036000830152612cde816126c5565b9050919050565b60006020820190508181036000830152612cfe8161270b565b9050919050565b60006020820190508181036000830152612d1e8161272e565b9050919050565b60006020820190508181036000830152612d3e81612797565b9050919050565b60006020820190508181036000830152612d5e816127dd565b9050919050565b60006020820190508181036000830152612d7e81612800565b9050919050565b60006020820190508181036000830152612d9e81612823565b9050919050565b60006020820190508181036000830152612dbe81612846565b9050919050565b60006020820190508181036000830152612dde8161288c565b9050919050565b60006020820190508181036000830152612dfe816128af565b9050919050565b60006020820190508181036000830152612e1e816128d2565b9050919050565b60006020820190508181036000830152612e3e816128f5565b9050919050565b60006020820190508181036000830152612e5e8161293b565b9050919050565b60006020820190508181036000830152612e7e816129a4565b9050919050565b6000602082019050612e9a60008301846129c7565b92915050565b6000612eaa612ebb565b9050612eb6828261314b565b919050565b6000604051905090565b600067ffffffffffffffff821115612ee057612edf6132b2565b5b612ee9826132f5565b9050602081019050919050565b60008190508160005260206000209050919050565b600081519050919050565b600081519050919050565b600082825260208201905092915050565b600082825260208201905092915050565b600081905092915050565b6000612f59826130cd565b9150612f64836130cd565b9250827fffffffffffffffffffffffffffffffffffffffffffffffffffffffffffffffff03821115612f9957612f986131f6565b5b828201905092915050565b6000612faf826130cd565b9150612fba836130cd565b925082612fca57612fc9613225565b5b828204905092915050565b6000612fe0826130cd565b9150612feb836130cd565b9250817fffffffffffffffffffffffffffffffffffffffffffffffffffffffffffffffff0483118215151615613024576130236131f6565b5b828202905092915050565b600061303a826130cd565b9150613045836130cd565b925082821015613058576130576131f6565b5b828203905092915050565b600061306e826130ad565b9050919050565b60008115159050919050565b60007fffffffff0000000000000000000000000000000000000000000000000000000082169050919050565b600073ffffffffffffffffffffffffffffffffffffffff82169050919050565b6000819050919050565b82818337600083830152505050565b60005b838110156131045780820151818401526020810190506130e9565b83811115613113576000848401525b50505050565b6000600282049050600182168061313157607f821691505b6020821081141561314557613144613254565b5b50919050565b613154826132f5565b810181811067ffffffffffffffff82111715613173576131726132b2565b5b80604052505050565b6000613187826130cd565b91507fffffffffffffffffffffffffffffffffffffffffffffffffffffffffffffffff8214156131ba576131b96131f6565b5b600182019050919050565b60006131d0826130cd565b91506131db836130cd565b9250826131eb576131ea613225565b5b828206905092915050565b7f4e487b7100000000000000000000000000000000000000000000000000000000600052601160045260246000fd5b7f4e487b7100000000000000000000000000000000000000000000000000000000600052601260045260246000fd5b7f4e487b7100000000000000000000000000000000000000000000000000000000600052602260045260246000fd5b7f4e487b7100000000000000000000000000000000000000000000000000000000600052603260045260246000fd5b7f4e487b7100000000000000000000000000000000000000000000000000000000600052604160045260246000fd5b600080fd5b600080fd5b600080fd5b600080fd5b6000601f19601f8301169050919050565b7f68747470733a2f2f6e6674707265766965772e30786465762e636f6465732f3f60008201527f636f64653d000000000000000000000000000000000000000000000000000000602082015250565b7f4552433732313a207472616e7366657220746f206e6f6e20455243373231526560008201527f63656976657220696d706c656d656e7465720000000000000000000000000000602082015250565b7f4552433732313a207472616e736665722066726f6d20696e636f72726563742060008201527f6f776e6572000000000000000000000000000000000000000000000000000000602082015250565b7f4552433732313a20746f6b656e20616c7265616479206d696e74656400000000600082015250565b7f54484952445f574f524400000000000000000000000000000000000000000000600082015250565b7f4552433732313a207472616e7366657220746f20746865207a65726f2061646460008201527f7265737300000000000000000000000000000000000000000000000000000000602082015250565b7f4552433732313a20617070726f766520746f2063616c6c657200000000000000600082015250565b7f222c20226465736372697074696f6e223a20224120686967686c79206163636c60008201527f61696d656420636f6c6c656374696f6e206f6620737175617265732e222c202260208201527f696d616765223a2022646174613a696d6167652f7376672b786d6c3b6261736560408201527f36342c0000000000000000000000000000000000000000000000000000000000606082015250565b7f5345434f4e445f574f5244000000000000000000000000000000000000000000600082015250565b7f4552433732313a206f70657261746f7220717565727920666f72206e6f6e657860008201527f697374656e7420746f6b656e0000000000000000000000000000000000000000602082015250565b7f3c2f746578743e3c2f7376673e00000000000000000000000000000000000000600082015250565b7f4552433732313a20617070726f76652063616c6c6572206973206e6f74206f7760008201527f6e6572206e6f7220617070726f76656420666f7220616c6c0000000000000000602082015250565b7f4552433732313a2062616c616e636520717565727920666f7220746865207a6560008201527f726f206164647265737300000000000000000000000000000000000000000000602082015250565b7f4552433732313a206f776e657220717565727920666f72206e6f6e657869737460008201527f656e7420746f6b656e0000000000000000000000000000000000000000000000602082015250565b7f45524337323155524953746f726167653a2055524920736574206f66206e6f6e60008201527f6578697374656e7420746f6b656e000000000000000000000000000000000000602082015250565b7f227d000000000000000000000000000000000000000000000000000000000000600082015250565b7f4552433732313a206d696e7420746f20746865207a65726f2061646472657373600082015250565b7f45524337323155524953746f726167653a2055524920717565727920666f722060008201527f6e6f6e6578697374656e7420746f6b656e000000000000000000000000000000602082015250565b7f4552433732313a20617070726f76656420717565727920666f72206e6f6e657860008201527f697374656e7420746f6b656e0000000000000000000000000000000000000000602082015250565b7f4552433732314d657461646174613a2055524920717565727920666f72206e6f60008201527f6e6578697374656e7420746f6b656e0000000000000000000000000000000000602082015250565b7f7b226e616d65223a202200000000000000000000000000000000000000000000600082015250565b7f4552433732313a20617070726f76616c20746f2063757272656e74206f776e6560008201527f7200000000000000000000000000000000000000000000000000000000000000602082015250565b7f46495253545f574f524400000000000000000000000000000000000000000000600082015250565b7f646174613a6170706c69636174696f6e2f6a736f6e3b6261736536342c000000600082015250565b7f4552433732313a207472616e736665722063616c6c6572206973206e6f74206f60008201527f776e6572206e6f7220617070726f766564000000000000000000000000000000602082015250565b61399681613063565b81146139a157600080fd5b50565b6139ad81613075565b81146139b857600080fd5b50565b6139c481613081565b81146139cf57600080fd5b50565b6139db816130cd565b81146139e657600080fd5b5056fe4142434445464748494a4b4c4d4e4f505152535455565758595a6162636465666768696a6b6c6d6e6f707172737475767778797a303132333435363738392b2f416e204e465420772f20494420257320686173206265656e206d696e746564206279202573a2646970667358221220993d2b63f37f75eced45aaefbf0918d359dcab0f1a2890d4295ff28764264f1564736f6c634300080700333c73766720786d6c6e733d27687474703a2f2f7777772e77332e6f72672f323030302f73766727207072657365727665417370656374526174696f3d27784d696e594d696e206d656574272076696577426f783d273020302033353020333530273e3c7374796c653e2e62617365207b2066696c6c3a2077686974653b20666f6e742d66616d696c793a2073657269663b20666f6e742d73697a653a20323470783b207d3c2f7374796c653e3c726563742077696474683d273130302527206865696768743d2731303025272066696c6c3d27626c61636b27202f3e3c7465787420783d273530252720793d273530252720636c6173733d27626173652720646f6d696e616e742d626173656c696e653d276d6964646c652720746578742d616e63686f723d276d6964646c65273e",
  "linkReferences": {},
  "deployedLinkReferences": {}
}